{
  "transactions": [
    {
      "hash": "0x8e5aadf1090b93215a163400bf57db3b86863779e5f62f5313094ba69a01f185",
      "transactionType": "CALL",
      "contractName": null,
      "contractAddress": "0x779877a7b0d9e8603169ddbd7836e478b4624789",
      "function": "transferAndCall(address,uint256,bytes)",
      "arguments": [
        "0x9DdfaCa8183c41ad55329BdeeD9F6A8d53168B1B",
        "3000000000000000000",
        "0x78e649cba684566d980f945b13b0931cbbd65d816ffa9a908ce44fffaf45575d"
      ],
      "transaction": {
        "from": "0xa9eb876ae41ceed1c415963cd6bdf5af0c251b61",
        "to": "0x779877a7b0d9e8603169ddbd7836e478b4624789",
        "gas": "0x14cbb",
        "value": "0x0",
        "input": "0x4000aea00000000000000000000000009ddfaca8183c41ad55329bdeed9f6a8d53168b1b00000000000000000000000000000000000000000000000029a2241af62c00000000000000000000000000000000000000000000000000000000000000000060000000000000000000000000000000000000000000000000000000000000002078e649cba684566d980f945b13b0931cbbd65d816ffa9a908ce44fffaf45575d",
        "nonce": "0x15",
        "chainId": "0xaa36a7"
      },
      "additionalContracts": [],
      "isFixedGasLimit": false
    }
  ],
  "receipts": [
    {
      "status": "0x1",
      "cumulativeGasUsed": "0xc4bd1a",
      "logs": [
        {
          "address": "0x779877a7b0d9e8603169ddbd7836e478b4624789",
          "topics": [
            "0xddf252ad1be2c89b69c2b068fc378daa952ba7f163c4a11628f55a4df523b3ef",
            "0x000000000000000000000000a9eb876ae41ceed1c415963cd6bdf5af0c251b61",
            "0x0000000000000000000000009ddfaca8183c41ad55329bdeed9f6a8d53168b1b"
          ],
          "data": "0x00000000000000000000000000000000000000000000000029a2241af62c0000",
          "blockHash": "0xbb05e8442676f75861f2c4acc0e4fd9391b8846693bc39aa9f0d2d9b9abd78ec",
          "blockNumber": "0x6e50f3",
          "transactionHash": "0x8e5aadf1090b93215a163400bf57db3b86863779e5f62f5313094ba69a01f185",
          "transactionIndex": "0x4c",
          "logIndex": "0x95",
          "removed": false
        },
        {
          "address": "0x779877a7b0d9e8603169ddbd7836e478b4624789",
          "topics": [
            "0xe19260aff97b920c7df27010903aeb9c8d2be5d310a2c67824cf3f15396e4c16",
            "0x000000000000000000000000a9eb876ae41ceed1c415963cd6bdf5af0c251b61",
            "0x0000000000000000000000009ddfaca8183c41ad55329bdeed9f6a8d53168b1b"
          ],
          "data": "0x00000000000000000000000000000000000000000000000029a2241af62c00000000000000000000000000000000000000000000000000000000000000000040000000000000000000000000000000000000000000000000000000000000002078e649cba684566d980f945b13b0931cbbd65d816ffa9a908ce44fffaf45575d",
          "blockHash": "0xbb05e8442676f75861f2c4acc0e4fd9391b8846693bc39aa9f0d2d9b9abd78ec",
          "blockNumber": "0x6e50f3",
          "transactionHash": "0x8e5aadf1090b93215a163400bf57db3b86863779e5f62f5313094ba69a01f185",
          "transactionIndex": "0x4c",
          "logIndex": "0x96",
          "removed": false
        },
        {
          "address": "0x9ddfaca8183c41ad55329bdeed9f6a8d53168b1b",
          "topics": [
            "0x1ced9348ff549fceab2ac57cd3a9de38edaaab274b725ee82c23e8fc8c4eec7a",
            "0x78e649cba684566d980f945b13b0931cbbd65d816ffa9a908ce44fffaf45575d"
          ],
          "data": "0x00000000000000000000000000000000000000000000000029a2241af62c000000000000000000000000000000000000000000000000000053444835ec580000",
          "blockHash": "0xbb05e8442676f75861f2c4acc0e4fd9391b8846693bc39aa9f0d2d9b9abd78ec",
          "blockNumber": "0x6e50f3",
          "transactionHash": "0x8e5aadf1090b93215a163400bf57db3b86863779e5f62f5313094ba69a01f185",
          "transactionIndex": "0x4c",
          "logIndex": "0x97",
          "removed": false
        }
      ],
      "logsBloom": "0x00000004000000000000000000000000000000000020000000000000020000000008000000000000000000000000000000000000000000000000080000000000000000000000000000010008000000000000000000000400000020000020000008000000000000000000000000000000000000000000000000000010000040000000000000000000000000010000800000000020000000000000000000000000000000000000000000000000010000000001000000000000000004000000000000000002000000000000000000000000000000000000000100000000000000000010000000000000800000000000000000000000000000000000000000000000",
      "type": "0x2",
      "transactionHash": "0x8e5aadf1090b93215a163400bf57db3b86863779e5f62f5313094ba69a01f185",
      "transactionIndex": "0x4c",
      "blockHash": "0xbb05e8442676f75861f2c4acc0e4fd9391b8846693bc39aa9f0d2d9b9abd78ec",
      "blockNumber": "0x6e50f3",
      "gasUsed": "0xf0e5",
      "effectiveGasPrice": "0x3a0a0d78",
      "from": "0xa9eb876ae41ceed1c415963cd6bdf5af0c251b61",
      "to": "0x779877a7b0d9e8603169ddbd7836e478b4624789",
      "contractAddress": null
    }
  ],
  "libraries": [],
  "pending": [],
  "returns": {},
  "timestamp": 1733571331,
  "chain": 11155111,
  "commit": "4ad6248"
}